{
  "contractName": "CryptoDoggies",
  "abi": [
    {
      "constant": true,
      "inputs": [],
      "name": "ceoAddress",
      "outputs": [
        {
          "name": "",
          "type": "address"
        }
      ],
      "payable": false,
      "stateMutability": "view",
      "type": "function"
    },
    {
      "constant": false,
      "inputs": [
        {
          "name": "_newCEO",
          "type": "address"
        }
      ],
      "name": "setCEO",
      "outputs": [],
      "payable": false,
      "stateMutability": "nonpayable",
      "type": "function"
    },
    {
      "constant": false,
      "inputs": [
        {
          "name": "_newCOO",
          "type": "address"
        }
      ],
      "name": "setCOO",
      "outputs": [],
      "payable": false,
      "stateMutability": "nonpayable",
      "type": "function"
    },
    {
      "constant": false,
      "inputs": [],
      "name": "unpause",
      "outputs": [],
      "payable": false,
      "stateMutability": "nonpayable",
      "type": "function"
    },
    {
      "constant": true,
      "inputs": [],
      "name": "paused",
      "outputs": [
        {
          "name": "",
          "type": "bool"
        }
      ],
      "payable": false,
      "stateMutability": "view",
      "type": "function"
    },
    {
      "constant": false,
      "inputs": [],
      "name": "pause",
      "outputs": [],
      "payable": false,
      "stateMutability": "nonpayable",
      "type": "function"
    },
    {
      "constant": true,
      "inputs": [],
      "name": "cooAddress",
      "outputs": [
        {
          "name": "",
          "type": "address"
        }
      ],
      "payable": false,
      "stateMutability": "view",
      "type": "function"
    },
    {
      "anonymous": false,
      "inputs": [
        {
          "indexed": false,
          "name": "tokenId",
          "type": "uint256"
        },
        {
          "indexed": false,
          "name": "name",
          "type": "string"
        },
        {
          "indexed": false,
          "name": "dna",
          "type": "bytes5"
        },
        {
          "indexed": false,
          "name": "price",
          "type": "uint256"
        },
        {
          "indexed": false,
          "name": "owner",
          "type": "address"
        }
      ],
      "name": "TokenCreated",
      "type": "event"
    },
    {
      "anonymous": false,
      "inputs": [
        {
          "indexed": true,
          "name": "tokenId",
          "type": "uint256"
        },
        {
          "indexed": false,
          "name": "name",
          "type": "string"
        },
        {
          "indexed": false,
          "name": "dna",
          "type": "bytes5"
        },
        {
          "indexed": false,
          "name": "sellingPrice",
          "type": "uint256"
        },
        {
          "indexed": false,
          "name": "newPrice",
          "type": "uint256"
        },
        {
          "indexed": true,
          "name": "newOwner",
          "type": "address"
        },
        {
          "indexed": true,
          "name": "oldOwner",
          "type": "address"
        }
      ],
      "name": "TokenSold",
      "type": "event"
    },
    {
      "anonymous": false,
      "inputs": [
        {
          "indexed": true,
          "name": "_from",
          "type": "address"
        },
        {
          "indexed": true,
          "name": "_to",
          "type": "address"
        },
        {
          "indexed": false,
          "name": "_tokenId",
          "type": "uint256"
        }
      ],
      "name": "Transfer",
      "type": "event"
    },
    {
      "anonymous": false,
      "inputs": [
        {
          "indexed": true,
          "name": "_owner",
          "type": "address"
        },
        {
          "indexed": true,
          "name": "_approved",
          "type": "address"
        },
        {
          "indexed": false,
          "name": "_tokenId",
          "type": "uint256"
        }
      ],
      "name": "Approval",
      "type": "event"
    },
    {
      "constant": false,
      "inputs": [
        {
          "name": "_name",
          "type": "string"
        }
      ],
      "name": "createToken",
      "outputs": [],
      "payable": false,
      "stateMutability": "nonpayable",
      "type": "function"
    },
    {
      "constant": false,
      "inputs": [
        {
          "name": "_name",
          "type": "string"
        },
        {
          "name": "_owner",
          "type": "address"
        },
        {
          "name": "_price",
          "type": "uint256"
        }
      ],
      "name": "createToken",
      "outputs": [],
      "payable": false,
      "stateMutability": "nonpayable",
      "type": "function"
    },
    {
      "constant": true,
      "inputs": [
        {
          "name": "_tokenId",
          "type": "uint256"
        }
      ],
      "name": "getToken",
      "outputs": [
        {
          "name": "_tokenName",
          "type": "string"
        },
        {
          "name": "_dna",
          "type": "bytes5"
        },
        {
          "name": "_owner",
          "type": "address"
        },
        {
          "name": "_price",
          "type": "uint256"
        },
        {
          "name": "_nextPrice",
          "type": "uint256"
        }
      ],
      "payable": false,
      "stateMutability": "view",
      "type": "function"
    },
    {
      "constant": true,
      "inputs": [],
      "name": "getAllTokens",
      "outputs": [
        {
          "name": "",
          "type": "uint256[]"
        },
        {
          "name": "",
          "type": "uint256[]"
        },
        {
          "name": "",
          "type": "address[]"
        }
      ],
      "payable": false,
      "stateMutability": "view",
      "type": "function"
    },
    {
      "constant": true,
      "inputs": [
        {
          "name": "_owner",
          "type": "address"
        }
      ],
      "name": "tokensOf",
      "outputs": [
        {
          "name": "",
          "type": "uint256[]"
        }
      ],
      "payable": false,
      "stateMutability": "view",
      "type": "function"
    },
    {
      "constant": false,
      "inputs": [
        {
          "name": "_to",
          "type": "address"
        },
        {
          "name": "_amount",
          "type": "uint256"
        }
      ],
      "name": "withdrawBalance",
      "outputs": [],
      "payable": false,
      "stateMutability": "nonpayable",
      "type": "function"
    },
    {
      "constant": false,
      "inputs": [
        {
          "name": "_tokenId",
          "type": "uint256"
        }
      ],
      "name": "purchase",
      "outputs": [],
      "payable": true,
      "stateMutability": "payable",
      "type": "function"
    },
    {
      "constant": true,
      "inputs": [
        {
          "name": "_tokenId",
          "type": "uint256"
        }
      ],
      "name": "priceOf",
      "outputs": [
        {
          "name": "_price",
          "type": "uint256"
        }
      ],
      "payable": false,
      "stateMutability": "view",
      "type": "function"
    },
    {
      "constant": true,
      "inputs": [
        {
          "name": "_tokenId",
          "type": "uint256"
        }
      ],
      "name": "nextPriceOf",
      "outputs": [
        {
          "name": "_nextPrize",
          "type": "uint256"
        }
      ],
      "payable": false,
      "stateMutability": "view",
      "type": "function"
    },
    {
      "constant": false,
      "inputs": [],
      "name": "enableERC721",
      "outputs": [],
      "payable": false,
      "stateMutability": "nonpayable",
      "type": "function"
    },
    {
      "constant": true,
      "inputs": [],
      "name": "totalSupply",
      "outputs": [
        {
          "name": "_totalSupply",
          "type": "uint256"
        }
      ],
      "payable": false,
      "stateMutability": "view",
      "type": "function"
    },
    {
      "constant": true,
      "inputs": [
        {
          "name": "_owner",
          "type": "address"
        }
      ],
      "name": "balanceOf",
      "outputs": [
        {
          "name": "_balance",
          "type": "uint256"
        }
      ],
      "payable": false,
      "stateMutability": "view",
      "type": "function"
    },
    {
      "constant": true,
      "inputs": [
        {
          "name": "_tokenId",
          "type": "uint256"
        }
      ],
      "name": "ownerOf",
      "outputs": [
        {
          "name": "_owner",
          "type": "address"
        }
      ],
      "payable": false,
      "stateMutability": "view",
      "type": "function"
    },
    {
      "constant": false,
      "inputs": [
        {
          "name": "_to",
          "type": "address"
        },
        {
          "name": "_tokenId",
          "type": "uint256"
        }
      ],
      "name": "approve",
      "outputs": [],
      "payable": false,
      "stateMutability": "nonpayable",
      "type": "function"
    },
    {
      "constant": false,
      "inputs": [
        {
          "name": "_from",
          "type": "address"
        },
        {
          "name": "_to",
          "type": "address"
        },
        {
          "name": "_tokenId",
          "type": "uint256"
        }
      ],
      "name": "transferFrom",
      "outputs": [],
      "payable": false,
      "stateMutability": "nonpayable",
      "type": "function"
    },
    {
      "constant": false,
      "inputs": [
        {
          "name": "_to",
          "type": "address"
        },
        {
          "name": "_tokenId",
          "type": "uint256"
        }
      ],
      "name": "transfer",
      "outputs": [],
      "payable": false,
      "stateMutability": "nonpayable",
      "type": "function"
    },
    {
      "constant": true,
      "inputs": [],
      "name": "implementsERC721",
      "outputs": [
        {
          "name": "",
          "type": "bool"
        }
      ],
      "payable": false,
      "stateMutability": "view",
      "type": "function"
    },
    {
      "constant": false,
      "inputs": [
        {
          "name": "_tokenId",
          "type": "uint256"
        }
      ],
      "name": "takeOwnership",
      "outputs": [],
      "payable": false,
      "stateMutability": "nonpayable",
      "type": "function"
    },
    {
      "constant": true,
      "inputs": [],
      "name": "name",
      "outputs": [
        {
          "name": "_name",
          "type": "string"
        }
      ],
      "payable": false,
      "stateMutability": "view",
      "type": "function"
    },
    {
      "constant": true,
      "inputs": [],
      "name": "symbol",
      "outputs": [
        {
          "name": "_symbol",
          "type": "string"
        }
      ],
      "payable": false,
      "stateMutability": "view",
      "type": "function"
    }
  ],
  "bytecode": "0x60806040526000600160146101000a81548160ff021916908315150217905550662386f26fc100006007556000600860006101000a81548160ff02191690831515021790555066470de4df8200006009556706f05b59d3b20000600a55671bc16d674ec80000600b55674563918244f40000600c55336000806101000a81548173ffffffffffffffffffffffffffffffffffffffff021916908373ffffffffffffffffffffffffffffffffffffffff16021790555033600160006101000a81548173ffffffffffffffffffffffffffffffffffffffff021916908373ffffffffffffffffffffffffffffffffffffffff160217905550612745806101046000396000f30060806040526004361061015f576000357c0100000000000000000000000000000000000000000000000000000000900463ffffffff16806306fdde0314610164578063095ea7b3146101f45780630a0f8168146102415780630cf20cc9146102985780631051db34146102e557806318160ddd1461031457806323b872dd1461033f57806327d7874c146103ac5780632a5c792a146103ef5780632ba73c15146104eb5780633f4ba83a1461052e57806345576f94146105455780635a3f2672146105ae5780635ba9e48e146106465780635c975abb146106875780636352211e146106b657806370a082311461072357806371dc761e1461077a57806373b4df05146107915780638456cb591461082457806395d89b411461083b578063a9059cbb146108cb578063b047fb5014610918578063b2e6ceeb1461096f578063b9186d7d1461099c578063e4b50cb8146109dd578063efef39a114610b07575b600080fd5b34801561017057600080fd5b50610179610b27565b6040518080602001828103825283818151815260200191508051906020019080838360005b838110156101b957808201518184015260208101905061019e565b50505050905090810190601f1680156101e65780820380516001836020036101000a031916815260200191505b509250505060405180910390f35b34801561020057600080fd5b5061023f600480360381019080803573ffffffffffffffffffffffffffffffffffffffff16906020019092919080359060200190929190505050610b64565b005b34801561024d57600080fd5b50610256610c6b565b604051808273ffffffffffffffffffffffffffffffffffffffff1673ffffffffffffffffffffffffffffffffffffffff16815260200191505060405180910390f35b3480156102a457600080fd5b506102e3600480360381019080803573ffffffffffffffffffffffffffffffffffffffff16906020019092919080359060200190929190505050610c90565b005b3480156102f157600080fd5b506102fa610e3a565b604051808215151515815260200191505060405180910390f35b34801561032057600080fd5b50610329610e6d565b6040518082815260200191505060405180910390f35b34801561034b57600080fd5b506103aa600480360381019080803573ffffffffffffffffffffffffffffffffffffffff169060200190929190803573ffffffffffffffffffffffffffffffffffffffff16906020019092919080359060200190929190505050610e7a565b005b3480156103b857600080fd5b506103ed600480360381019080803573ffffffffffffffffffffffffffffffffffffffff169060200190929190505050610f27565b005b3480156103fb57600080fd5b50610404611001565b60405180806020018060200180602001848103845287818151815260200191508051906020019060200280838360005b8381101561044f578082015181840152602081019050610434565b50505050905001848103835286818151815260200191508051906020019060200280838360005b83811015610491578082015181840152602081019050610476565b50505050905001848103825285818151815260200191508051906020019060200280838360005b838110156104d35780820151818401526020810190506104b8565b50505050905001965050505050505060405180910390f35b3480156104f757600080fd5b5061052c600480360381019080803573ffffffffffffffffffffffffffffffffffffffff1690602001909291905050506111af565b005b34801561053a57600080fd5b5061054361128a565b005b34801561055157600080fd5b506105ac600480360381019080803590602001908201803590602001908080601f016020809104026020016040519081016040528093929190818152602001838380828437820191505050505050919291929050505061131d565b005b3480156105ba57600080fd5b506105ef600480360381019080803573ffffffffffffffffffffffffffffffffffffffff1690602001909291905050506113ee565b6040518080602001828103825283818151815260200191508051906020019060200280838360005b83811015610632578082015181840152602081019050610617565b505050509050019250505060405180910390f35b34801561065257600080fd5b506106716004803603810190808035906020019092919050505061153a565b6040518082815260200191505060405180910390f35b34801561069357600080fd5b5061069c611663565b604051808215151515815260200191505060405180910390f35b3480156106c257600080fd5b506106e160048036038101908080359060200190929190505050611676565b604051808273ffffffffffffffffffffffffffffffffffffffff1673ffffffffffffffffffffffffffffffffffffffff16815260200191505060405180910390f35b34801561072f57600080fd5b50610764600480360381019080803573ffffffffffffffffffffffffffffffffffffffff1690602001909291905050506116b3565b6040518082815260200191505060405180910390f35b34801561078657600080fd5b5061078f6116fc565b005b34801561079d57600080fd5b50610822600480360381019080803590602001908201803590602001908080601f0160208091040260200160405190810160405280939291908181526020018383808284378201915050505050509192919290803573ffffffffffffffffffffffffffffffffffffffff16906020019092919080359060200190929190505050611774565b005b34801561083057600080fd5b50610839611892565b005b34801561084757600080fd5b50610850611925565b6040518080602001828103825283818151815260200191508051906020019080838360005b83811015610890578082015181840152602081019050610875565b50505050905090810190601f1680156108bd5780820380516001836020036101000a031916815260200191505b509250505060405180910390f35b3480156108d757600080fd5b50610916600480360381019080803573ffffffffffffffffffffffffffffffffffffffff16906020019092919080359060200190929190505050611962565b005b34801561092457600080fd5b5061092d6119f9565b604051808273ffffffffffffffffffffffffffffffffffffffff1673ffffffffffffffffffffffffffffffffffffffff16815260200191505060405180910390f35b34801561097b57600080fd5b5061099a60048036038101908080359060200190929190505050611a1f565b005b3480156109a857600080fd5b506109c760048036038101908080359060200190929190505050611aac565b6040518082815260200191505060405180910390f35b3480156109e957600080fd5b50610a0860048036038101908080359060200190929190505050611ac9565b6040518080602001867affffffffffffffffffffffffffffffffffffffffffffffffffffff19167affffffffffffffffffffffffffffffffffffffffffffffffffffff191681526020018573ffffffffffffffffffffffffffffffffffffffff1673ffffffffffffffffffffffffffffffffffffffff168152602001848152602001838152602001828103825287818151815260200191508051906020019080838360005b83811015610ac8578082015181840152602081019050610aad565b50505050905090810190601f168015610af55780820380516001836020036101000a031916815260200191505b50965050505050505060405180910390f35b610b2560048036038101908080359060200190929190505050611c37565b005b60606040805190810160405280600d81526020017f43727970746f446f676769657300000000000000000000000000000000000000815250905090565b600160149054906101000a900460ff16151515610b8057600080fd5b600860009054906101000a900460ff161515610b9b57600080fd5b610ba5338261202c565b1515610bb057600080fd5b816005600083815260200190815260200160002060006101000a81548173ffffffffffffffffffffffffffffffffffffffff021916908373ffffffffffffffffffffffffffffffffffffffff1602179055508173ffffffffffffffffffffffffffffffffffffffff163373ffffffffffffffffffffffffffffffffffffffff167f8c5be1e5ebec7d5bd14f71427d1e84f3dd0314c0f7b2291e5b200ac8c7c3b925836040518082815260200191505060405180910390a35050565b6000809054906101000a900473ffffffffffffffffffffffffffffffffffffffff1681565b6000809054906101000a900473ffffffffffffffffffffffffffffffffffffffff1673ffffffffffffffffffffffffffffffffffffffff163373ffffffffffffffffffffffffffffffffffffffff16141515610ceb57600080fd5b3073ffffffffffffffffffffffffffffffffffffffff16318111151515610d1157600080fd5b6000811415610d35573073ffffffffffffffffffffffffffffffffffffffff163190505b600073ffffffffffffffffffffffffffffffffffffffff168273ffffffffffffffffffffffffffffffffffffffff161415610dee576000809054906101000a900473ffffffffffffffffffffffffffffffffffffffff1673ffffffffffffffffffffffffffffffffffffffff166108fc3073ffffffffffffffffffffffffffffffffffffffff16319081150290604051600060405180830381858888f19350505050158015610de8573d6000803e3d6000fd5b50610e36565b8173ffffffffffffffffffffffffffffffffffffffff166108fc829081150290604051600060405180830381858888f19350505050158015610e34573d6000803e3d6000fd5b505b5050565b6000600160149054906101000a900460ff16151515610e5857600080fd5b600860009054906101000a900460ff16905090565b6000600680549050905090565b600160149054906101000a900460ff16151515610e9657600080fd5b600860009054906101000a900460ff161515610eb157600080fd5b600073ffffffffffffffffffffffffffffffffffffffff168273ffffffffffffffffffffffffffffffffffffffff1614151515610eed57600080fd5b610ef7838261202c565b1515610f0257600080fd5b610f0c3382612098565b1515610f1757600080fd5b610f22838383612104565b505050565b6000809054906101000a900473ffffffffffffffffffffffffffffffffffffffff1673ffffffffffffffffffffffffffffffffffffffff163373ffffffffffffffffffffffffffffffffffffffff16141515610f8257600080fd5b600073ffffffffffffffffffffffffffffffffffffffff168173ffffffffffffffffffffffffffffffffffffffff1614151515610fbe57600080fd5b806000806101000a81548173ffffffffffffffffffffffffffffffffffffffff021916908373ffffffffffffffffffffffffffffffffffffffff16021790555050565b6060806060600060608060606000611017610e6d565b9450846040519080825280602002602001820160405280156110485781602001602082028038833980820191505090505b5093508460405190808252806020026020018201604052801561107a5781602001602082028038833980820191505090505b509250846040519080825280602002602001820160405280156110ac5781602001602082028038833980820191505090505b509150600090505b8481101561119c57600360008281526020019081526020016000205484828151811015156110de57fe5b90602001906020020181815250506110f58161153a565b838281518110151561110357fe5b90602001906020020181815250506002600082815260200190815260200160002060009054906101000a900473ffffffffffffffffffffffffffffffffffffffff16828281518110151561115357fe5b9060200190602002019073ffffffffffffffffffffffffffffffffffffffff16908173ffffffffffffffffffffffffffffffffffffffff168152505080806001019150506110b4565b8383839750975097505050505050909192565b6000809054906101000a900473ffffffffffffffffffffffffffffffffffffffff1673ffffffffffffffffffffffffffffffffffffffff163373ffffffffffffffffffffffffffffffffffffffff1614151561120a57600080fd5b600073ffffffffffffffffffffffffffffffffffffffff168173ffffffffffffffffffffffffffffffffffffffff161415151561124657600080fd5b80600160006101000a81548173ffffffffffffffffffffffffffffffffffffffff021916908373ffffffffffffffffffffffffffffffffffffffff16021790555050565b6000809054906101000a900473ffffffffffffffffffffffffffffffffffffffff1673ffffffffffffffffffffffffffffffffffffffff163373ffffffffffffffffffffffffffffffffffffffff161415156112e557600080fd5b600160149054906101000a900460ff16151561130057600080fd5b6000600160146101000a81548160ff021916908315150217905550565b60008060009054906101000a900473ffffffffffffffffffffffffffffffffffffffff1673ffffffffffffffffffffffffffffffffffffffff163373ffffffffffffffffffffffffffffffffffffffff1614806113c75750600160009054906101000a900473ffffffffffffffffffffffffffffffffffffffff1673ffffffffffffffffffffffffffffffffffffffff163373ffffffffffffffffffffffffffffffffffffffff16145b15156113d257600080fd5b6113da6122cc565b90506113ea8282306007546122f7565b5050565b6060600060606000806000611402876116b3565b9450600085141561144557600060405190808252806020026020018201604052801561143d5781602001602082028038833980820191505090505b509550611530565b846040519080825280602002602001820160405280156114745781602001602082028038833980820191505090505b50935061147f610e6d565b925060009150600090505b8281101561152c578673ffffffffffffffffffffffffffffffffffffffff166002600083815260200190815260200160002060009054906101000a900473ffffffffffffffffffffffffffffffffffffffff1673ffffffffffffffffffffffffffffffffffffffff16141561151f5780848381518110151561150857fe5b906020019060200201818152505081806001019250505b808060010191505061148a565b8395505b5050505050919050565b6000806003600084815260200190815260200160002054905060095481101561158b57611584605f61157660c8846125ba90919063ffffffff16565b6125f590919063ffffffff16565b915061165d565b600a548110156115c3576115bc60606115ae6087846125ba90919063ffffffff16565b6125f590919063ffffffff16565b915061165d565b600b548110156115fb576115f460616115e6607d846125ba90919063ffffffff16565b6125f590919063ffffffff16565b915061165d565b600c548110156116335761162c606161161e6075846125ba90919063ffffffff16565b6125f590919063ffffffff16565b915061165d565b61165a606261164c6073846125ba90919063ffffffff16565b6125f590919063ffffffff16565b91505b50919050565b600160149054906101000a900460ff1681565b60006002600083815260200190815260200160002060009054906101000a900473ffffffffffffffffffffffffffffffffffffffff169050919050565b6000600460008373ffffffffffffffffffffffffffffffffffffffff1673ffffffffffffffffffffffffffffffffffffffff168152602001908152602001600020549050919050565b6000809054906101000a900473ffffffffffffffffffffffffffffffffffffffff1673ffffffffffffffffffffffffffffffffffffffff163373ffffffffffffffffffffffffffffffffffffffff1614151561175757600080fd5b6001600860006101000a81548160ff021916908315150217905550565b60008060009054906101000a900473ffffffffffffffffffffffffffffffffffffffff1673ffffffffffffffffffffffffffffffffffffffff163373ffffffffffffffffffffffffffffffffffffffff16148061181e5750600160009054906101000a900473ffffffffffffffffffffffffffffffffffffffff1673ffffffffffffffffffffffffffffffffffffffff163373ffffffffffffffffffffffffffffffffffffffff16145b151561182957600080fd5b600073ffffffffffffffffffffffffffffffffffffffff168373ffffffffffffffffffffffffffffffffffffffff161415151561186557600080fd5b600754821015151561187657600080fd5b61187e6122cc565b905061188c848285856122f7565b50505050565b6000809054906101000a900473ffffffffffffffffffffffffffffffffffffffff1673ffffffffffffffffffffffffffffffffffffffff163373ffffffffffffffffffffffffffffffffffffffff161415156118ed57600080fd5b600160149054906101000a900460ff1615151561190957600080fd5b60018060146101000a81548160ff021916908315150217905550565b60606040805190810160405280600381526020017f4454430000000000000000000000000000000000000000000000000000000000815250905090565b600160149054906101000a900460ff1615151561197e57600080fd5b600860009054906101000a900460ff16151561199957600080fd5b600073ffffffffffffffffffffffffffffffffffffffff168273ffffffffffffffffffffffffffffffffffffffff16141515156119d557600080fd5b6119df338261202c565b15156119ea57600080fd5b6119f5338383612104565b5050565b600160009054906101000a900473ffffffffffffffffffffffffffffffffffffffff1681565b600160149054906101000a900460ff16151515611a3b57600080fd5b600860009054906101000a900460ff161515611a5657600080fd5b611a603382612098565b1515611a6b57600080fd5b611aa96002600083815260200190815260200160002060009054906101000a900473ffffffffffffffffffffffffffffffffffffffff163383612104565b50565b600060036000838152602001908152602001600020549050919050565b6060600080600080600686815481101515611ae057fe5b90600052602060002090600202016000018054600181600116156101000203166002900480601f016020809104026020016040519081016040528092919081815260200182805460018160011615610100020316600290048015611b855780601f10611b5a57610100808354040283529160200191611b85565b820191906000526020600020905b815481529060010190602001808311611b6857829003601f168201915b50505050509450600686815481101515611b9b57fe5b906000526020600020906002020160010160009054906101000a90047b0100000000000000000000000000000000000000000000000000000002935060036000878152602001908152602001600020549150611bf68661153a565b90506002600087815260200190815260200160002060009054906101000a900473ffffffffffffffffffffffffffffffffffffffff16925091939590929450565b6000806000806000600160149054906101000a900460ff16151515611c5b57600080fd5b611c6486611676565b9450339350611c7286611aac565b9250600073ffffffffffffffffffffffffffffffffffffffff168573ffffffffffffffffffffffffffffffffffffffff1614151515611cb057600080fd5b600073ffffffffffffffffffffffffffffffffffffffff168473ffffffffffffffffffffffffffffffffffffffff1614151515611cec57600080fd5b8473ffffffffffffffffffffffffffffffffffffffff168473ffffffffffffffffffffffffffffffffffffffff1614151515611d2757600080fd5b611d3084612610565b151515611d3c57600080fd5b600083111515611d4b57600080fd5b823410151515611d5a57600080fd5b611d65858588612104565b8373ffffffffffffffffffffffffffffffffffffffff168573ffffffffffffffffffffffffffffffffffffffff16877f47c2495ae9a226645e2cfa7b81ab70c2d82f35b0c69a72358812cca2f0f0bcbc60068a815481101515611dc457fe5b906000526020600020906002020160000160068b815481101515611de457fe5b906000526020600020906002020160010160009054906101000a90047b010000000000000000000000000000000000000000000000000000000288611e288d611aac565b6040518080602001857affffffffffffffffffffffffffffffffffffffffffffffffffffff19167affffffffffffffffffffffffffffffffffffffffffffffffffffff19168152602001848152602001838152602001828103825286818154600181600116156101000203166002900481526020019150805460018160011615610100020316600290048015611eff5780601f10611ed457610100808354040283529160200191611eff565b820191906000526020600020905b815481529060010190602001808311611ee257829003601f168201915b50509550505050505060405180910390a4611f23833461262390919063ffffffff16565b9150611f4c6064611f3e6006866125ba90919063ffffffff16565b6125f590919063ffffffff16565b90503073ffffffffffffffffffffffffffffffffffffffff168573ffffffffffffffffffffffffffffffffffffffff16141515611fdd578473ffffffffffffffffffffffffffffffffffffffff166108fc611fb0838661262390919063ffffffff16565b9081150290604051600060405180830381858888f19350505050158015611fdb573d6000803e3d6000fd5b505b8373ffffffffffffffffffffffffffffffffffffffff166108fc839081150290604051600060405180830381858888f19350505050158015612023573d6000803e3d6000fd5b50505050505050565b60008273ffffffffffffffffffffffffffffffffffffffff166002600084815260200190815260200160002060009054906101000a900473ffffffffffffffffffffffffffffffffffffffff1673ffffffffffffffffffffffffffffffffffffffff1614905092915050565b60008273ffffffffffffffffffffffffffffffffffffffff166005600084815260200190815260200160002060009054906101000a900473ffffffffffffffffffffffffffffffffffffffff1673ffffffffffffffffffffffffffffffffffffffff1614905092915050565b600460008373ffffffffffffffffffffffffffffffffffffffff1673ffffffffffffffffffffffffffffffffffffffff16815260200190815260200160002060008154809291906001019190505550816002600083815260200190815260200160002060006101000a81548173ffffffffffffffffffffffffffffffffffffffff021916908373ffffffffffffffffffffffffffffffffffffffff160217905550600073ffffffffffffffffffffffffffffffffffffffff168373ffffffffffffffffffffffffffffffffffffffff1614151561226257600460008473ffffffffffffffffffffffffffffffffffffffff1673ffffffffffffffffffffffffffffffffffffffff16815260200190815260200160002060008154809291906001900391905055506005600082815260200190815260200160002060006101000a81549073ffffffffffffffffffffffffffffffffffffffff02191690555b8173ffffffffffffffffffffffffffffffffffffffff168373ffffffffffffffffffffffffffffffffffffffff167fddf252ad1be2c89b69c2b068fc378daa952ba7f163c4a11628f55a4df523b3ef836040518082815260200191505060405180910390a3505050565b60008060006001430391508140905060d863ffffffff6001028216600019169060020a029250505090565b6122ff61263c565b60006040805190810160405280878152602001867affffffffffffffffffffffffffffffffffffffffffffffffffffff191681525091506001600683908060018154018082558091505090600182039060005260206000209060020201600090919290919091506000820151816000019080519060200190612382929190612674565b5060208201518160010160006101000a81548164ffffffffff02191690837b010000000000000000000000000000000000000000000000000000009004021790555050500390508260036000838152602001908152602001600020819055507fe2541836f6f02475fc0b01a06c1e80d7e5098215c6015348851ceabef9d05e6881878786886040518086815260200180602001857affffffffffffffffffffffffffffffffffffffffffffffffffffff19167affffffffffffffffffffffffffffffffffffffffffffffffffffff191681526020018481526020018373ffffffffffffffffffffffffffffffffffffffff1673ffffffffffffffffffffffffffffffffffffffff168152602001828103825286818151815260200191508051906020019080838360005b838110156124c75780820151818401526020810190506124ac565b50505050905090810190601f1680156124f45780820380516001836020036101000a031916815260200191505b50965050505050505060405180910390a1836002600083815260200190815260200160002060006101000a81548173ffffffffffffffffffffffffffffffffffffffff021916908373ffffffffffffffffffffffffffffffffffffffff160217905550600460008573ffffffffffffffffffffffffffffffffffffffff1673ffffffffffffffffffffffffffffffffffffffff168152602001908152602001600020600081548092919060010191905055506125b260008583612104565b505050505050565b60008060008414156125cf57600091506125ee565b82840290508284828115156125e057fe5b041415156125ea57fe5b8091505b5092915050565b600080828481151561260357fe5b0490508091505092915050565b600080823b905060008111915050919050565b600082821115151561263157fe5b818303905092915050565b60408051908101604052806060815260200160007affffffffffffffffffffffffffffffffffffffffffffffffffffff191681525090565b828054600181600116156101000203166002900490600052602060002090601f016020900481019282601f106126b557805160ff19168380011785556126e3565b828001600101855582156126e3579182015b828111156126e25782518255916020019190600101906126c7565b5b5090506126f091906126f4565b5090565b61271691905b808211156127125760008160009055506001016126fa565b5090565b905600a165627a7a7230582019de2cd16b7b4d93b2f6eee043b898284501a63d122f316473955981e3fc579a0029",
  "source": "pragma solidity ^0.4.21;\n\n\nimport \"./AccessControl.sol\";\nimport \"./ERC721.sol\";\nimport \"./SafeMath.sol\";\n\ncontract DetailedERC721 is ERC721{\n    function name() public view returns (string _name);\n    function symbol() public view returns (string _sym);\n\n}\n\ncontract CryptoDoggies is AccessControl, DetailedERC721{\n    using SafeMath for uint256;\n\n    event TokenCreated(uint256 tokenId, string name, bytes5 dna, uint256 price, address owner);\n\n    \n    event TokenSold(\n        uint256 indexed tokenId, \n        string name, \n        bytes5 dna, \n        uint256 sellingPrice, \n        uint256 newPrice,\n        address indexed newOwner,\n        address indexed oldOwner\n    );       \n\n    mapping(uint256=>address) private tokenIdToOwner;\n    mapping(uint256=>uint256) private tokenIdToPrice;\n    mapping(address=>uint256) private ownershipTokenCount;\n    mapping(uint256=>address) private tokenIdToApproved;\n\n    struct Doggy{\n        string name;\n        bytes5 dna;\n    }\n\n    Doggy[] private doggies;\n\n    uint256 private startingPrice = 0.01 ether;\n    bool private erc721Enabled = false;\n    \n    modifier onlyERC721(){\n        require(erc721Enabled);\n        _;\n    }\n\n    function createToken(string _name, address _owner, uint256 _price) public onlyCLevel{\n        require(_owner != address(0));\n        require(_price >= startingPrice);\n\n        bytes5 _dna = generateRandomDna();\n        _createToken(_name, _dna, _owner, _price);\n    }\n\n    function createToken(string _name) public onlyCLevel{\n        bytes5 _dna = generateRandomDna();\n        _createToken(_name, _dna, address(this), startingPrice);\n\n    }\n\n    function generateRandomDna() private view returns(bytes5 _dna){\n        uint256 lastBlockNumber = block.number - 1;\n        bytes32 hashVal = bytes32(blockhash(lastBlockNumber));\n        _dna = bytes5((hashVal & 0xffffffff) << 216);\n\n    }\n\n    function _createToken(string _name, bytes5 _dna, address _owner, uint256 _price) private{\n        Doggy memory _doggy = Doggy({\n            name: _name,\n            dna: _dna \n        });\n\n        uint256 newTokenId = doggies.push(_doggy) - 1;\n        tokenIdToPrice[newTokenId] = _price;\n\n        emit TokenCreated(newTokenId, _name, _dna, _price, _owner);\n        tokenIdToOwner[newTokenId] = _owner;\n        ownershipTokenCount[_owner]++; \n\n        _transfer(address(0), _owner, newTokenId); \n\n    }\n\n    function getToken(uint256 _tokenId) public view returns(\n        string _tokenName, \n        bytes5 _dna, \n        address _owner, \n        uint256 _price,\n        uint256 _nextPrice){\n            _tokenName = doggies[_tokenId].name;\n           _dna = doggies[_tokenId].dna;\n           _price = tokenIdToPrice[_tokenId];\n           _nextPrice = nextPriceOf(_tokenId);\n           _owner = tokenIdToOwner[_tokenId];\n\n    }\n\n    function getAllTokens() public view returns(uint256[], uint256[], address[]){\n            uint256 total = totalSupply();\n            uint256[] memory prices = new uint256[](total);\n            uint256[] memory nextPrices = new uint256[](total);\n            address[] memory owners = new address[](total);\n\n            for(uint256 i = 0; i<total; i++){\n                prices[i] = tokenIdToPrice[i];\n                nextPrices[i] = nextPriceOf(i);\n                owners[i] = tokenIdToOwner[i];\n            }\n\n            return (prices, nextPrices, owners);\n    }\n\n    function tokensOf(address _owner) public view returns (uint256[]){\n        uint256 tokenCount = balanceOf(_owner);\n        if(tokenCount == 0){\n            return new uint256[](0);\n        } else {\n            uint256[] memory _ownerTokens = new uint256[](tokenCount);\n            uint256 total = totalSupply();\n            uint256 tokenIndex = 0;\n\n            for(uint256 i=0; i<total; i++){\n                if(tokenIdToOwner[i] == _owner){\n                    _ownerTokens[tokenIndex] = i;\n                    tokenIndex++;\n                }\n            } \n        }\n        return _ownerTokens;\n    }\n\n    function withdrawBalance(address _to, uint256 _amount) public onlyCEO{\n        require(_amount <= address(this).balance);\n\n        if(_amount == 0){\n            _amount = address(this).balance;\n        }\n        if(_to == address(0)){\n            ceoAddress.transfer(address(this).balance);\n        }\n        else{\n            _to.transfer(_amount);\n        }\n    } \n\n    function purchase(uint256 _tokenId) public payable whenNotPaused{\n        address oldOwner = ownerOf(_tokenId);\n        address newOwner = msg.sender;\n        uint256 sellingPrice = priceOf(_tokenId);\n\n        require(oldOwner != address(0));\n        require(newOwner != address(0));\n        require(newOwner != oldOwner);\n        require(!_isContract(newOwner));\n        require(sellingPrice > 0);\n        require(msg.value >= sellingPrice);\n\n        _transfer(oldOwner, newOwner, _tokenId);\n        emit TokenSold(\n            _tokenId,\n            doggies[_tokenId].name,\n            doggies[_tokenId].dna,\n            sellingPrice,\n            priceOf(_tokenId),\n            oldOwner,\n            newOwner\n        );\n\n        uint256 excess = msg.value.sub(sellingPrice);\n        uint256 contractCut = sellingPrice.mul(6).div(100);//6% cut\n\n        if(oldOwner != address(this)){\n            oldOwner.transfer(sellingPrice.sub(contractCut));\n        }\n        newOwner.transfer(excess);\n        //ceoAddress.transfer(contractCut);\n    }\n\n    function priceOf(uint256 _tokenId) public view returns(uint256 _price){\n        return tokenIdToPrice[_tokenId];\n    }\n\n    uint256 private increaseLimit1 = 0.02 ether;\n    uint256 private increaseLimit2 = 0.5 ether;\n    uint256 private increaseLimit3 = 2.0 ether;\n    uint256 private increaseLimit4 = 5.0 ether;\n    \n\n    function nextPriceOf(uint256 _tokenId) public view returns (uint256 _nextPrize){\n        uint256 _price = tokenIdToPrice[_tokenId];\n        if(_price < increaseLimit1){\n            return _price.mul(200).div(95);\n        } else if(_price < increaseLimit2){\n            return _price.mul(135).div(96);\n        } else if(_price < increaseLimit3){\n            return _price.mul(125).div(97);\n        } else if(_price < increaseLimit4){\n            return _price.mul(117).div(97);\n        } else{\n            return _price.mul(115).div(98);\n        }\n    }\n\n    function enableERC721() public onlyCEO{\n        erc721Enabled = true;\n    }\n\n    function totalSupply() public view returns(uint256 _totalSupply){\n        _totalSupply = doggies.length;\n    }\n\n    function balanceOf(address _owner) public view returns(uint256 _balance){\n        _balance = ownershipTokenCount[_owner];\n    }\n\n    function ownerOf(uint256 _tokenId) public view returns(address _owner){\n        _owner = tokenIdToOwner[_tokenId];\n    }\n\n    function approve(address _to, uint256 _tokenId) public whenNotPaused onlyERC721{\n        require(_owns(msg.sender, _tokenId));\n        tokenIdToApproved[_tokenId] = _to;\n        emit Approval(msg.sender, _to, _tokenId);\n    }\n\n    function transferFrom(address _from, address _to, uint256 _tokenId) public whenNotPaused onlyERC721{\n        require(_to != address(0));\n        require(_owns(_from, _tokenId));\n        require(_approved(msg.sender, _tokenId));\n        _transfer(_from, _to, _tokenId);\n    }\n\n    function transfer(address _to, uint256 _tokenId) public whenNotPaused onlyERC721 {\n        require(_to != address(0));\n        require(_owns(msg.sender, _tokenId));\n\n        _transfer(msg.sender, _to, _tokenId);\n    }\n\n    //to know whether the function is ERC721 compliant\n    function implementsERC721() public view whenNotPaused returns (bool){\n        return erc721Enabled;\n    }\n\n    function takeOwnership(uint256 _tokenId) public whenNotPaused onlyERC721{\n        require(_approved(msg.sender, _tokenId));\n        _transfer(tokenIdToOwner[_tokenId], msg.sender, _tokenId);\n    }\n\n    function name() public view returns (string _name){\n        _name = \"CryptoDoggies\";\n    }\n\n    function symbol() public view returns (string _symbol){\n        _symbol = \"DTC\";\n    }\n\n    function _owns(address _claimant, uint256 _tokenId) private view returns(bool){\n        return (tokenIdToOwner[_tokenId] == _claimant);\n    }\n\n    function _approved(address _to, uint256 _tokenId) private view returns(bool){\n        return (tokenIdToApproved[_tokenId] == _to);\n    }\n\n    function _transfer(address _from, address _to, uint256 _tokenId) private{\n        ownershipTokenCount[_to]++;\n        tokenIdToOwner[_tokenId] = _to;\n\n        if(_from != address(0)){\n            ownershipTokenCount[_from]--;\n            delete tokenIdToApproved[_tokenId];\n        }\n\n        emit Transfer(_from, _to, _tokenId);\n    }\n\n    function _isContract(address addr) private view returns(bool){\n        uint256 size;\n        assembly {size:= extcodesize(addr)}\n        return size > 0;\n    }\n}",
  "sourcePath": "/media/deus/Workspace/important/Blockchain/CryptoDoggies/contracts/CryptoDoggies.sol",
  "compiler": {
    "name": "solc",
    "version": "0.4.24+commit.e67f0147.Emscripten.clang"
  },
  "schemaVersion": "2.0.1",
  "updatedAt": "2018-12-04T12:49:29.342Z"
}